{
  "contractName": "TitleSearch",
  "abi": [
    {
      "anonymous": false,
      "inputs": [
        {
          "indexed": false,
          "name": "text",
          "type": "bytes32"
        }
      ],
      "name": "AddedRecord",
      "type": "event",
      "signature": "0x7dfc57a9525538776c977cb1e9851c5be5b9e0a6bafd9fbf3ca94ee6d4dd42e2"
    },
    {
      "constant": false,
      "inputs": [
        {
          "name": "bar",
          "type": "bytes32"
        }
      ],
      "name": "addRecord",
      "outputs": [],
      "payable": false,
      "stateMutability": "nonpayable",
      "type": "function",
      "signature": "0x571a1d73"
    }
  ],
  "bytecode": "0x608060405234801561001057600080fd5b5060e18061001f6000396000f3fe608060405260043610603f576000357c0100000000000000000000000000000000000000000000000000000000900463ffffffff168063571a1d73146044575b600080fd5b348015604f57600080fd5b50607960048036036020811015606457600080fd5b8101908080359060200190929190505050607b565b005b7f7dfc57a9525538776c977cb1e9851c5be5b9e0a6bafd9fbf3ca94ee6d4dd42e2816040518082815260200191505060405180910390a15056fea165627a7a72305820088f60ef65e989266da005e0ea8b76da381c0fe8e94975e85a6d377e2868a7820029",
  "source": "pragma solidity >=0.5.0;\n\ncontract TitleSearch {\n    event AddedRecord(bytes32 text );\n    function addRecord(bytes32 bar) public {\n        emit AddedRecord(bar);\n    }\n}",
  "sourcePath": "C:/Users/socket_var/Desktop/mortgage-title-search/truffle-build/contracts/TitleSearch.sol",
  "compiler": {
    "name": "solc",
    "version": "0.5.0+commit.1d4f565a.Emscripten.clang"
  },
  "schemaVersion": "3.0.1",
  "updatedAt": "2019-04-13T01:52:18.718Z",
  "devdoc": {
    "methods": {}
  },
  "userdoc": {
    "methods": {}
  }
}