{
  "contractName": "TitleSearch",
  "abi": [
    {
      "inputs": [],
      "payable": true,
      "stateMutability": "payable",
      "type": "constructor",
      "signature": "constructor"
    },
    {
      "anonymous": false,
      "inputs": [
        {
          "indexed": true,
          "name": "event_id",
          "type": "bytes32"
        },
        {
          "indexed": true,
          "name": "db_type",
          "type": "bytes32"
        },
        {
          "indexed": false,
          "name": "record",
          "type": "string"
        }
      ],
      "name": "AddedRecord",
      "type": "event",
      "signature": "0xae537f43da1005ff59eb7daa9d102d12d89879cb4a52284e45da3880872de05a"
    },
    {
      "constant": false,
      "inputs": [
        {
          "name": "unique_id",
          "type": "bytes32"
        },
        {
          "name": "db_name",
          "type": "bytes32"
        },
        {
          "name": "record",
          "type": "string"
        }
      ],
      "name": "addRecord",
      "outputs": [],
      "payable": false,
      "stateMutability": "nonpayable",
      "type": "function",
      "signature": "0x23c3b146"
    }
  ],
  "bytecode": "0x6080604052336000806101000a81548173ffffffffffffffffffffffffffffffffffffffff021916908373ffffffffffffffffffffffffffffffffffffffff1602179055506102b5806100536000396000f3fe608060405260043610610041576000357c0100000000000000000000000000000000000000000000000000000000900463ffffffff16806323c3b14614610046575b600080fd5b34801561005257600080fd5b506101206004803603606081101561006957600080fd5b8101908080359060200190929190803590602001909291908035906020019064010000000081111561009a57600080fd5b8201836020820111156100ac57600080fd5b803590602001918460018302840111640100000000831117156100ce57600080fd5b91908080601f016020809104026020016040519081016040528093929190818152602001838380828437600081840152601f19601f820116905080830192505050505050509192919290505050610122565b005b6000809054906101000a900473ffffffffffffffffffffffffffffffffffffffff1673ffffffffffffffffffffffffffffffffffffffff163373ffffffffffffffffffffffffffffffffffffffff161415156101e6576040517f08c379a000000000000000000000000000000000000000000000000000000000815260040180806020018281038252601e8152602001807f4f6e6c79206368616972706572736f6e2063616e2063616c6c2074686973000081525060200191505060405180910390fd5b81837fae537f43da1005ff59eb7daa9d102d12d89879cb4a52284e45da3880872de05a836040518080602001828103825283818151815260200191508051906020019080838360005b8381101561024a57808201518184015260208101905061022f565b50505050905090810190601f1680156102775780820380516001836020036101000a031916815260200191505b509250505060405180910390a350505056fea165627a7a72305820ec570218861303f21c344952f53d47b2c57368069b9598e0ced9b2a9135611430029",
  "source": "pragma solidity >=0.5.0;\n\ncontract TitleSearch {\n    event AddedRecord(bytes32 indexed event_id, bytes32 indexed db_type, string record);\n    address private chairperson;\n    constructor() public payable {\n        chairperson = msg.sender;\n    }\n    \n    modifier onlyChairperson() {\n        require(msg.sender == chairperson, \"Only chairperson can call this\");\n        _;\n    }\n    \n    function addRecord(bytes32 unique_id, bytes32 db_name, string memory record) public onlyChairperson {\n        emit AddedRecord(unique_id, db_name, record);\n    }\n}",
  "sourcePath": "C:/Users/socket_var/Desktop/mortgage-title-search/truffle-build/contracts/TitleSearch.sol",
  "compiler": {
    "name": "solc",
    "version": "0.5.0+commit.1d4f565a.Emscripten.clang"
  },
  "schemaVersion": "3.0.1",
  "updatedAt": "2019-04-13T16:05:26.784Z",
  "devdoc": {
    "methods": {}
  },
  "userdoc": {
    "methods": {}
  }
}